{
  "_format": "hh-sol-artifact-1",
  "contractName": "PaymentProcessor",
  "sourceName": "contracts/PaymentProcessor.sol",
  "abi": [
    {
      "inputs": [
        {
          "internalType": "address",
          "name": "usdtAddress",
          "type": "address"
        }
      ],
      "stateMutability": "nonpayable",
      "type": "constructor"
    },
    {
      "anonymous": false,
      "inputs": [
        {
          "indexed": true,
          "internalType": "address",
          "name": "user",
          "type": "address"
        },
        {
          "indexed": false,
          "internalType": "uint256",
          "name": "usdtAmount",
          "type": "uint256"
        },
        {
          "indexed": false,
          "internalType": "uint256",
          "name": "coinAmount",
          "type": "uint256"
        }
      ],
      "name": "Deposit",
      "type": "event"
    },
    {
      "anonymous": false,
      "inputs": [
        {
          "indexed": true,
          "internalType": "address",
          "name": "user",
          "type": "address"
        },
        {
          "indexed": false,
          "internalType": "uint256",
          "name": "coinAmount",
          "type": "uint256"
        },
        {
          "indexed": false,
          "internalType": "uint256",
          "name": "usdtAmount",
          "type": "uint256"
        }
      ],
      "name": "Withdraw",
      "type": "event"
    },
    {
      "inputs": [],
      "name": "EXCHANGE_RATE",
      "outputs": [
        {
          "internalType": "uint256",
          "name": "",
          "type": "uint256"
        }
      ],
      "stateMutability": "view",
      "type": "function"
    },
    {
      "inputs": [
        {
          "internalType": "uint256",
          "name": "usdtAmount",
          "type": "uint256"
        }
      ],
      "name": "depositUSDT",
      "outputs": [],
      "stateMutability": "nonpayable",
      "type": "function"
    },
    {
      "inputs": [],
      "name": "getContractUSDTBalance",
      "outputs": [
        {
          "internalType": "uint256",
          "name": "",
          "type": "uint256"
        }
      ],
      "stateMutability": "view",
      "type": "function"
    },
    {
      "inputs": [],
      "name": "getExchangeRate",
      "outputs": [
        {
          "internalType": "uint256",
          "name": "",
          "type": "uint256"
        }
      ],
      "stateMutability": "pure",
      "type": "function"
    },
    {
      "inputs": [
        {
          "internalType": "address",
          "name": "user",
          "type": "address"
        }
      ],
      "name": "getUserCoinBalance",
      "outputs": [
        {
          "internalType": "uint256",
          "name": "",
          "type": "uint256"
        }
      ],
      "stateMutability": "view",
      "type": "function"
    },
    {
      "inputs": [],
      "name": "usdt",
      "outputs": [
        {
          "internalType": "contract IERC20",
          "name": "",
          "type": "address"
        }
      ],
      "stateMutability": "view",
      "type": "function"
    },
    {
      "inputs": [
        {
          "internalType": "uint256",
          "name": "coinAmount",
          "type": "uint256"
        }
      ],
      "name": "withdrawUSDT",
      "outputs": [],
      "stateMutability": "nonpayable",
      "type": "function"
    }
  ],
  "bytecode": "0x60a06040523480156200001157600080fd5b506040516200103d3803806200103d833981810160405281019062000037919062000156565b6001600081905550600073ffffffffffffffffffffffffffffffffffffffff168173ffffffffffffffffffffffffffffffffffffffff1603620000b1576040517f08c379a0000000000000000000000000000000000000000000000000000000008152600401620000a890620001e9565b60405180910390fd5b8073ffffffffffffffffffffffffffffffffffffffff1660808173ffffffffffffffffffffffffffffffffffffffff1681525050506200020b565b600080fd5b600073ffffffffffffffffffffffffffffffffffffffff82169050919050565b60006200011e82620000f1565b9050919050565b620001308162000111565b81146200013c57600080fd5b50565b600081519050620001508162000125565b92915050565b6000602082840312156200016f576200016e620000ec565b5b60006200017f848285016200013f565b91505092915050565b600082825260208201905092915050565b7f496e76616c696420555344542061646472657373000000000000000000000000600082015250565b6000620001d160148362000188565b9150620001de8262000199565b602082019050919050565b600060208201905081810360008301526200020481620001c2565b9050919050565b608051610e016200023c600039600081816101690152818161030401528181610488015261057b0152610e016000f3fe608060405234801561001057600080fd5b506004361061007d5760003560e01c80638abd18b21161005b5780638abd18b2146100da578063c8f760401461010a578063e6aa216c14610128578063e7c80f17146101465761007d565b806314a8bd0d146100825780632f48ab7d146100a05780633ea521ef146100be575b600080fd5b61008a610162565b604051610097919061078d565b60405180910390f35b6100a8610167565b6040516100b59190610827565b60405180910390f35b6100d860048036038101906100d39190610873565b61018b565b005b6100f460048036038101906100ef91906108de565b61043b565b604051610101919061078d565b60405180910390f35b610112610484565b60405161011f919061078d565b60405180910390f35b610130610525565b60405161013d919061078d565b60405180910390f35b610160600480360381019061015b9190610873565b61052e565b005b606481565b7f000000000000000000000000000000000000000000000000000000000000000081565b61019361071b565b600081116101d6576040517f08c379a00000000000000000000000000000000000000000000000000000000081526004016101cd90610968565b60405180910390fd5b80600160003373ffffffffffffffffffffffffffffffffffffffff1673ffffffffffffffffffffffffffffffffffffffff168152602001908152602001600020541015610258576040517f08c379a000000000000000000000000000000000000000000000000000000000815260040161024f906109d4565b60405180910390fd5b60006064826102679190610a52565b9050600081116102ac576040517f08c379a00000000000000000000000000000000000000000000000000000000081526004016102a390610acf565b60405180910390fd5b81600160003373ffffffffffffffffffffffffffffffffffffffff1673ffffffffffffffffffffffffffffffffffffffff16815260200190815260200160002060008282546102fb9190610aef565b925050819055507f000000000000000000000000000000000000000000000000000000000000000073ffffffffffffffffffffffffffffffffffffffff1663a9059cbb33836040518363ffffffff1660e01b815260040161035d929190610b32565b6020604051808303816000875af115801561037c573d6000803e3d6000fd5b505050506040513d601f19601f820116820180604052508101906103a09190610b93565b6103df576040517f08c379a00000000000000000000000000000000000000000000000000000000081526004016103d690610c0c565b60405180910390fd5b3373ffffffffffffffffffffffffffffffffffffffff167ff279e6a1f5e320cca91135676d9cb6e44ca8a08c0b88342bcdb1144f6511b5688383604051610427929190610c2c565b60405180910390a25061043861076a565b50565b6000600160008373ffffffffffffffffffffffffffffffffffffffff1673ffffffffffffffffffffffffffffffffffffffff168152602001908152602001600020549050919050565b60007f000000000000000000000000000000000000000000000000000000000000000073ffffffffffffffffffffffffffffffffffffffff166370a08231306040518263ffffffff1660e01b81526004016104df9190610c55565b602060405180830381865afa1580156104fc573d6000803e3d6000fd5b505050506040513d601f19601f820116820180604052508101906105209190610c85565b905090565b60006064905090565b61053661071b565b60008111610579576040517f08c379a000000000000000000000000000000000000000000000000000000000815260040161057090610968565b60405180910390fd5b7f000000000000000000000000000000000000000000000000000000000000000073ffffffffffffffffffffffffffffffffffffffff166323b872dd3330846040518463ffffffff1660e01b81526004016105d693929190610cb2565b6020604051808303816000875af11580156105f5573d6000803e3d6000fd5b505050506040513d601f19601f820116820180604052508101906106199190610b93565b610658576040517f08c379a000000000000000000000000000000000000000000000000000000000815260040161064f90610c0c565b60405180910390fd5b60006064826106679190610ce9565b905080600160003373ffffffffffffffffffffffffffffffffffffffff1673ffffffffffffffffffffffffffffffffffffffff16815260200190815260200160002060008282546106b89190610d2b565b925050819055503373ffffffffffffffffffffffffffffffffffffffff167f90890809c654f11d6e72a28fa60149770a0d11ec6c92319d6ceb2bb0a4ea1a158383604051610707929190610c2c565b60405180910390a25061071861076a565b50565b600260005403610760576040517f08c379a000000000000000000000000000000000000000000000000000000000815260040161075790610dab565b60405180910390fd5b6002600081905550565b6001600081905550565b6000819050919050565b61078781610774565b82525050565b60006020820190506107a2600083018461077e565b92915050565b600073ffffffffffffffffffffffffffffffffffffffff82169050919050565b6000819050919050565b60006107ed6107e86107e3846107a8565b6107c8565b6107a8565b9050919050565b60006107ff826107d2565b9050919050565b6000610811826107f4565b9050919050565b61082181610806565b82525050565b600060208201905061083c6000830184610818565b92915050565b600080fd5b61085081610774565b811461085b57600080fd5b50565b60008135905061086d81610847565b92915050565b60006020828403121561088957610888610842565b5b60006108978482850161085e565b91505092915050565b60006108ab826107a8565b9050919050565b6108bb816108a0565b81146108c657600080fd5b50565b6000813590506108d8816108b2565b92915050565b6000602082840312156108f4576108f3610842565b5b6000610902848285016108c9565b91505092915050565b600082825260208201905092915050565b7f416d6f756e74206d757374206265203e20300000000000000000000000000000600082015250565b600061095260128361090b565b915061095d8261091c565b602082019050919050565b6000602082019050818103600083015261098181610945565b9050919050565b7f496e73756666696369656e7420636f696e730000000000000000000000000000600082015250565b60006109be60128361090b565b91506109c982610988565b602082019050919050565b600060208201905081810360008301526109ed816109b1565b9050919050565b7f4e487b7100000000000000000000000000000000000000000000000000000000600052601260045260246000fd5b7f4e487b7100000000000000000000000000000000000000000000000000000000600052601160045260246000fd5b6000610a5d82610774565b9150610a6883610774565b925082610a7857610a776109f4565b5b828204905092915050565b7f546f6f2066657720636f696e7320666f72203120756e6974206f662055534454600082015250565b6000610ab960208361090b565b9150610ac482610a83565b602082019050919050565b60006020820190508181036000830152610ae881610aac565b9050919050565b6000610afa82610774565b9150610b0583610774565b9250828203905081811115610b1d57610b1c610a23565b5b92915050565b610b2c816108a0565b82525050565b6000604082019050610b476000830185610b23565b610b54602083018461077e565b9392505050565b60008115159050919050565b610b7081610b5b565b8114610b7b57600080fd5b50565b600081519050610b8d81610b67565b92915050565b600060208284031215610ba957610ba8610842565b5b6000610bb784828501610b7e565b91505092915050565b7f55534454207472616e73666572206661696c6564000000000000000000000000600082015250565b6000610bf660148361090b565b9150610c0182610bc0565b602082019050919050565b60006020820190508181036000830152610c2581610be9565b9050919050565b6000604082019050610c41600083018561077e565b610c4e602083018461077e565b9392505050565b6000602082019050610c6a6000830184610b23565b92915050565b600081519050610c7f81610847565b92915050565b600060208284031215610c9b57610c9a610842565b5b6000610ca984828501610c70565b91505092915050565b6000606082019050610cc76000830186610b23565b610cd46020830185610b23565b610ce1604083018461077e565b949350505050565b6000610cf482610774565b9150610cff83610774565b9250828202610d0d81610774565b91508282048414831517610d2457610d23610a23565b5b5092915050565b6000610d3682610774565b9150610d4183610774565b9250828201905080821115610d5957610d58610a23565b5b92915050565b7f5265656e7472616e637947756172643a207265656e7472616e742063616c6c00600082015250565b6000610d95601f8361090b565b9150610da082610d5f565b602082019050919050565b60006020820190508181036000830152610dc481610d88565b905091905056fea264697066735822122037dc85f63386e96b14937323265e532b5922bcf2d9db761a16034748bb4c75f164736f6c63430008130033",
  "linkReferences": {},
  "deployedLinkReferences": {}
}